S012000052656365697665725F332E737265634B
S11300000C9438000C9442000C9442000C9442006E
S11300100C9442000C9442000C9442000C94420054
S11300200C9442000C9442000C9442000C94420044
S11300300C9442000C9442000C9442000C94420034
S11300400C9442000C9442000C9442000C94420024
S11300500C9442000C9442000C9442000C94420014
S11300600C9442000C9442000C9442000C94420004
S113007011241FBECFEFD4E0DEBFCDBF0E944400E9
S11300800C949F000C940000CF93DF9300D000D019
S1130090CDB7DEB781E3898382E38A8383E38B83ED
S11300A084E38C8387B38B7F87BB87B3886087BBEC
S11300B08FEF8ABB84BB1CBE85E080B980E181B927
S11300C08EE88CBF8FE38BBB2FE33DE043E02150F0
S11300D030404040E1F700C0000080E090E0179B12
S11300E0FECF23B12A3259F435E03BBB5FE33DE058
S11300F043E0515030404040E1F700C00000E1E0EF
S1130100F0E0EC0FFD1FE80FF91F3081231301C04D
S113011001968430910569F486E08BBB5FE38DE042
S113012093E0515080409040E1F700C0000080E02F
S113013090E08430910599F227E02BBBD0CFF8945E
S1050140FFCFEB
S9030000FC
