:100000000C9438000C9442000C9442000C94420072
:100010000C9442000C9442000C9442000C94420058
:100020000C9442000C9442000C9442000C94420048
:100030000C9442000C9442000C9442000C94420038
:100040000C9442000C9442000C9442000C94420028
:100050000C9442000C9442000C9442000C94420018
:100060000C9442000C9442000C9442000C94420008
:1000700011241FBECFEFD4E0DEBFCDBF0E944F00E2
:100080000C94D9000C94000018BA83B3813021F489
:1000900080B38F7090E0089580E190E00895CF9351
:1000A000DF93CDB7DEB768970FB6F894DEBF0FBE0B
:1000B000CDBF21E3298392E39A8383E38B8334E3E7
:1000C0003C83FE01359644E1DF011D924A95E9F734
:1000D00047E34D8348E34E8349E34F834FE248872C
:1000E000398735E33A8736E33B873AE23C872D8709
:1000F0009E878F878DE2888B81E4898B80E38A8B52
:100100008DE38B8B8BE28C8B80EF81BB8FEF8ABB77
:1001100014BA82E087BB85E080B91CBE81B18860DB
:1001200081B986E88CBF86EC8BBBBFE32DE083E012
:10013000B15020408040E1F700C00000E12CF12CDC
:1001400016B311700E94440080319105A1F0E5E0E2
:10015000F0E0EC0FFD1FE80FF91F8081E1E0F0E017
:10016000EC0FFD1FEE0DFF1D9081891303C09FEF63
:10017000E91AF90A83B9113079F48AE283B986EC75
:100180008BBBAFE3BDE023E0A150B0402040E1F7DE
:1001900000C00000E12CF12C84E0E816F10411F419
:1001A00080EC8BBB94E0E916F10451F286EC8BBB3A
:0601B000C7CFF894FFCF59
:00000001FF
